:10086A0053544331355734303841530D0A55617268
:0B087A0074205465737420210D0A00E7
:10080000E4F594F593F592F591F596F595F5B2F535
:10081000B1F5B4F5B3F5CAF5C9F5CCF5CBF5E2F50C
:10082000E1E5A2543FF5A27598DA75D7E875D6FFD1
:10083000758E14438E01D2ACD2AF7BFF7A08796AF1
:0508400012084580FED6
:0300230002089E32
:10089E00C0D0309809C298859980A29A92A23099B8
:0808AE0004C299C200D0D0324F
:1008B6002000FDEF30D004D29B8002C29BD200F50F
:0208C600992275
:100845008B088A09890AAB08AA09A90A12088560D2
:1008550013050AE50A7002050914F9120885FF1245
:0508650008B680E2224C
:030000000208C82B
:0C08C800787FE4F6D8FD7581200208005E
:10088500BB010689828A83E0225002E722BBFE0271
:09089500E32289828A83E49322A4
:00000001FF
