:100A9200424C4443205465737420210D0A00426184
:100AA2007564203936303020627073204032342E23
:100AB2003030304D487A0D0A0053544331355734A3
:100AC20030384153205465737420210D0A00546953
:100AD2006D65204F7574210D0A0053746F70204D9F
:080AE2006F746F72210D0A0010
:070B7C007FFA120B837FFAE0
:0F0B83007D367C07ED1D70011C144C70F7DFF1FF
:010B92002240
:100B93000000000000000000000000000000000052
:070BA30000000000DFEA2260
:10080000E50A14603B14605A1460781470030208FF
:10081000A41470030208C7240560030208E9C2B6E5
:10082000C2CD53F2FDE4F5FA53F3FDF5FB53F4FDAD
:10083000F5FC53F2FD850CFAD2B375BCED0208C38A
:10084000C2B6C2B353F2FDE4F5FA53F3FDF5FB5320
:10085000F4FDF5FC53F2FD850CFAD2CD75BCEC022B
:1008600008E6C2B6C2B353F2FDE4F5FA53F3FDF560
:10087000FB53F4FDF5FC53F3FD850CFBD2CD75BCA9
:10088000EB8040C2B3C2CD53F2FDE4F5FA53F3FD61
:10089000F5FB53F4FDF5FC53F3FD850CFBD2B67567
:1008A000BCED8042C2B3C2CD53F2FDE4F5FA53F37E
:1008B000FDF5FB53F4FDF5FC53F4FD850CFCD2B6BD
:1008C00075BCEC75E69C22C2B6C2CD53F2FDE4F5D0
:1008D000FA53F3FDF5FB53F4FDF5FC53F4FD850CE1
:0A08E000FCD2B375BCEB75E6AC2248
:100AEA00C2B6C2B3C2CD53B1B743B24853C9DF434A
:100AFA00CA2075D90AE4F5E9F5F9F5F2F5FAF5EA45
:100B0A0075DA42F5F3F5FBF5EB75DB42F5F4F5FC26
:100B1A00F5EC75DC4253F2FDF5FA53F3FDF5FB53A0
:070B2A00F4FDF5FCD2DE2210
:0A0BEE004391385392C7759D3822D9
:0300AB00020B5CE9
:100B5C00C0E0C0D053E6BFE50AC394055004050AB3
:100B6C008003750A00120800750B0AD0D0D0E03251
:0D0BD50075E68C75E73C43C91053CAEF224A
:1009B30053E6BF750C1EE4F50A1208007F05120BFF
:1009C300837B2C7A01E4FDFCC3ED9BEC9A500C7FF6
:1009D30032120B930DBD00010C80ED7C007D0FAF37
:1009E30003AE02120A3DEF2401FFE43EFEC3EB9F78
:1009F300FBEA9EFAC3EB9419EA9400501153E6BF45
:100A0300D200E4F50C750B0A43E6407F0122E50AA8
:100A1300C394055004050A8003E4F50A1208008014
:010A2300A42E
:100BC000759850438E01438E0475D78F75D6FD43BB
:050BD0008E10D2AC22E2
:03002300020BAA23
:100BAA00C2AC309807859909C298D201309904C21B
:060BBA0099C202D2AC3228
:090BF8002002FDEFD202F5992262
:060B31007BFF7A0A79A0A7
:100B37008B108A118912AB10AA11A912120A24600C
:100B4700130512E5127002051114F9120A24FF1297
:050B57000BF880E22212
:1008EA00120AEA120BEE120BD5120BC0C289E4F5FA
:1008FA0009F508F50FF50BD2AF7BFF7A0A79921248
:10090A000B37120B317F01120B837BFF7A0A79BBFB
:10091A00120B37120B31E50BD394004030150BE55F
:10092A000B702A53E6BFF5FAF5FBF5FCC2B6C2B363
:10093A00C2CDF509F50CC201C200F50FF50B7BFF1C
:10094A007A0A79D0120B37120B7C120B7C30010217
:10095A00C20120000AE509C3941E40031209B30527
:10096A0008E508C3940A409DE4F508300097E50CB1
:10097A0095095002050CE50CD395094002150CE5C2
:10098A000CC39414400302090FE4F50CC200F5FAF3
:10099A00F5FBF5FCC2B6C2B3C2CD53E6BF7BFF7A04
:0909AA000A79DC120B3702090F77
:03000000020BE20E
:0C0BE200787FE4F6D8FD7581200208EA57
:100A2400BB010689828A83E0225002E722BBFE02D0
:090A3400E32289828A83E4932203
:100A3D00BC000BBE0029EF8DF084FFADF022E4CC9D
:100A4D00F875F008EF2FFFEE33FEEC33FCEE9DEC66
:100A5D00984005FCEE9DFE0FD5F0E9E4CEFD22EDAC
:100A6D00F8F5F0EE8420D21CFEADF075F008EF2FF6
:100A7D00FFED33FD4007985006D5F0F222C398FDE7
:050A8D000FD5F0EA2284
:00000001FF
